:02000000801C62
:03000B000201C12E
:10001B000201B075816C75A88A758A36758C557519
:10002B008B36758D55758911D28C751532751212EB
:10003B00751323751456C28EC201120052B46FF69B
:10004B00D28E12006180EF12012B1200CC2001E640
:10005B003000F4E5F0221152540FFAC3F5F074029C
:10006B0095F040F2EAC453120F42121152540FFA98
:10007B00E51254F04AC3F5F0742395F040EDEA53C2
:10008B0012F042121152540FFAC3F5F0740595F0A9
:10009B0040F2EAC453130F42131152540F5313F08F
:1000AB0042131152540FFAC3F5F0740595F040F258
:1000BB00EAC453140F42141152540F5314F0421448
:1000CB0022C2007590FEE590B4FE197590FDE59087
:1000DB00B4FD117590FBE590B4FB097590F7E590B5
:1000EB00B4F70122F5F0750E0090011AE49360103D
:1000FB00B5F00E9001F7E50E93D200F5F012011159
:10010B0022A3050E80E67590F0E590B4F0FB22EE8D
:10011B00DEBE7EEDDDBD7DEBDBBB7BE7D7B77700CE
:10012B0075A00012013B12015712017575A0002238
:10013B00E514120193D2A5F58012019BE514C412AC
:10014B000193C2A5F580D2A412019B22E5131201E3
:10015B0093C2A4F580D2A312019BE513C4120193A1
:10016B00C2A3F580D2A212019B22E512120193C207
:10017B00A2F580D2A112019BE512C4120193C2A178
:10018B00F580D2A012019B22540F9001A093F42270
:10019B0079FFD9FE223F065B4F666D7D077F677740
:1001AB007C395E7971758B36758D55D564077564A1
:1001BB00C7D201B2B032FE758A36758C55D5152A69
:1001CB00751532E5142401D4F514B4601D751400B3
:1001DB00E5132401D4F513B46010751300E5122454
:1001EB0001D4F512B42403751200EE323738392FCF
:0C01FB00343536783132332D6F303D2B17
:00000001FF
