:02000000800C72
:10000B000200FD75A88075B802758144C2D3C2D4B5
:10001B00D2B9D2A9C28DC2E3C2E2C2E1D2E0758AE3
:10002B0000758CB8F589D28C750F32750C00750D77
:10003B0000750E0012009C12013F3001F7E5F0B481
:10004B006FF212005280EDC28C750EAA750DAA7557
:10005B000CAA120092E5F0540FC4530C0F420C1271
:10006B000092E5F0540F530CF0420C120092E5F0A5
:10007B00540FC4530D0F420D120092E5F0540F5361
:10008B000DF0420DD28C2212009C12013F3001F771
:10009B002275A000E50D1200AAE50C1200C822C0C3
:1000AB00E0540F9000F193F4D2A2F580D0E0C45449
:1000BB000F9000F193F4C2A2D2A0F58022C0E054BD
:1000CB000F9000F193F4C2A0D2A1F580D0E0C454FC
:1000DB000F9000F193F4C2A1D2A3F580227C64C2ED
:1000EB00A6DCFED2A6223F065B4F666D7D077F6FB7
:1000FB004000C0D0C0E0C28D758A00758CB8C2A913
:10010B00D50F2A750F32E50E2401D4F50EB4601D00
:10011B00750E00E50D2401D4F50DB46010750D00BE
:10012B00E50C2401D4F50CB42403750C00D2A9D032
:10013B00E0D0D032C2017590FEE590B4FE197590F7
:10014B00FDE590B4FD117590FBE590B4FB0975903E
:10015B00F7E590B4F70122F5F075100090018DE4EE
:10016B00936010B5F00E90019EE51093D201F5F05F
:10017B0012018422A3051080E67590F0E590B4F08F
:10018B00FB22EEDEBE7EEDDDBD7DEBDBBB7BE7D781
:10019B00B777003738392F343536583132332D6F26
:0301AB00303D2BB9
:00000001FF
