:1000000012002B3000FAE5F0120013D2B1C2B0F5A5
:100010008080ED540F90001B93F4223F065B4F66E7
:100020006D7D077F67777C395E7971C2007590FEC0
:10003000E590B4FE197590FDE590B4FD117590FB47
:10004000E590B4FB097590F7E590B4F70122F5F05F
:10005000750E00900079E4936010B5F00E90008A60
:10006000E50E93D200F5F012007022A3050E80E693
:100070007590F0E590B4F0FB227EBEDEEE7DBDDD36
:10008000ED7BBBDBEB77B7D7E7000A3938370B36A8
:0A00900035340C3332310D0E300F01
:00000001FF
