:10000000743FF4D2B0D2B1F5801200141200613006
:1000100000F780F5E5F0C4120039C2B1D2B0F58026
:10002000120034E5F0120039C2B0D2B1F5801200EE
:1000300034C2B0227DC8DDFE22540F90005193F4EB
:100040002241393837423635344333323144453032
:10005000463F065B4F666D7D077F67777C395E792B
:1000600071C2007590FEE590B4FE197590FDE590A3
:10007000B4FD117590FBE590B4FB097590F7E59020
:10008000B4F70122F5F0750E009000AFE493601014
:10009000B5F00E9000C0E50E93D200F5F01200A668
:1000A00022A3050E80E67590F0E590B4F0FB227E69
:1000B000BEDEEE7DBDDDED7BBBDBEB77B7D7E700CA
:1000C0000A3938370B3635340C3332310D0E300FD8
:00000001FF
