:020000040000FA
:06000000D5EF11F0120023
:0A0006000200C82300009E00000065
:1000100004000000F9210000A3000000010000001E
:10002000D9CFE6FFE1CFD9FF040EE126FD0EDBCFED
:1000300014F0FE0EDBCF15F0166A15BE1668400EE2
:100040000C6E420E0D6E0F0E0E6E14C007F015C032
:1000500008F016C009F04CEC11F004C014F005C013
:1000600015F006C016F0FD0E14C0DBFFFE0E15C025
:10007000DBFF0A0EF36E020EF3CFDBFF030EDB6A2B
:10008000DE6ADD6ADECF14F0DDCF15F0FD0EDBCFCA
:1000900016F0FE0EDBCF17F015501718E8AE02D0A1
:1000A000173404D01650145C175015584DE2000058
:1000B0000000000000000000000000000000000040
:1000C0000000000000000000000000000000000030
:1000D0000000000000000000000000000000000020
:1000E0000000000000000000000000000000000010
:1000F0000000000000000000000000000000000000
:1001000000000000000000000000000000000000EF
:1001100000000000000000000000000000000000DF
:1001200000000000000000000000000000000000CF
:100130000000000000000000000000000000DF2AB6
:10014000010E01E3DB2A9ED7040EE15C02E2E16AC4
:10015000E552E16EE552E7CFD9FF1200D9CFE6FFB5
:10016000E1CFD9FF560EE126D950020FE96EDACF62
:10017000EAFF570EEE6E610EEE6E790EEE6E3A0EDF
:10018000EE6EEE6AD950070FE96EDACFEAFF540E31
:10019000EE6E720EEE6E610EEE6E630EEE6E740E0D
:1001A000EE6E690EEE6E6F0EEE6E6E0EEE6E3A0E27
:1001B000EE6EEE6AD950110FE96EDACFEAFF460E05
:1001C000EE6E720EEE6E6F0EEE6E6E0EEE6E740EC4
:1001D000EE6EEE6AD950170FE96EDACFEAFF520ED3
:1001E000EE6E650EEE6E610EEE6E720EEE6EEE6AE5
:1001F000D9501C0FE96EDACFEAFF520EEE6E6F0E89
:10020000EE6E740EEE6E340EEE6EEE6AD950210F65
:10021000E96EDACFEAFF520EEE6E650EEE6E740EE8
:10022000EE6E340EEE6EEE6AD950260FE96EDACF1E
:10023000EAFF520EEE6E690EEE6E670EEE6E680EFF
:10024000EE6E740EEE6E200EEE6E520EEE6E650EBB
:10025000EE6E610EEE6E720EEE6E2C0EEE6EEE6AAD
:10026000D950320FE96EDACFEAFF4C0EEE6E650E12
:10027000EE6E660EEE6E740EEE6E200EEE6E520E8A
:10028000EE6E650EEE6E610EEE6E720EEE6E2C0E62
:10029000EE6EEE6AD9503D0FE96EDACFEAFF520EEC
:1002A000EE6E690EEE6E670EEE6E680EEE6E740EFA
:1002B000EE6E200EEE6E460EEE6E720EEE6E6F0E4F
:1002C000EE6E6E0EEE6E740EEE6E2C0EEE6EEE6A2E
:1002D000D9504A0FE96EDACFEAFF4C0EEE6E650E8A
:1002E000EE6E660EEE6E740EEE6E200EEE6E460E26
:1002F000EE6E720EEE6E6F0EEE6E6E0EEE6E740E93
:10030000EE6E2C0EEE6EEE6ADE6ADD6ABAEC0EF070
:10031000DECFE6FFDDCFE6FFD950020FE66E000E1E
:10032000DA20E66E3CEC0EF0E552E552E552E5527D
:10033000050EDE6EDD6A03EC10F001081CE1DECF75
:10034000E6FFDDCFE6FFD950110FE66E000EDA2092
:10035000E66E3CEC0EF0E552E552E552E552DECF9A
:1003600014F0DDCF15F0060E1426000E152214C071
:10037000DEFF15C0DDFF07EC10F001081CE1DECF49
:10038000E6FFDDCFE6FFD950170FE66E000EDA204C
:10039000E66E3CEC0EF0E552E552E552E552DECF5A
:1003A00014F0DDCF15F0050E1426000E152214C032
:1003B000DEFF15C0DDFF0BEC10F001081CE1DECF05
:1003C000E6FFDDCFE6FFD9501C0FE66E000EDA2007
:1003D000E66E3CEC0EF0E552E552E552E552DECF1A
:1003E00014F0DDCF15F0050E1426000E152214C0F2
:1003F000DEFF15C0DDFF0FEC10F001081CE1DECFC1
:10040000E6FFDDCFE6FFD950210FE66E000EDA20C1
:10041000E66E3CEC0EF0E552E552E552E552DECFD9
:1004200014F0DDCF15F0050E1426000E152214C0B1
:10043000DEFF15C0DDFF0A0EE66EA8EC0CF0E552FB
:10044000BAEC0EF0DE6ADD6ADECFE6FFDDCFE6FF56
:10045000D950070FE66E000EDA20E66E3CEC0EF087
:10046000E552E552E552E5520A0EDE6EDD6A13EC06
:1004700010F001081CE1DECFE6FFDDCFE6FFD9502A
:10048000260FE66E000EDA20E66E3CEC0EF0E5522A
:10049000E552E552E552DECF14F0DDCF15F00C0E3B
:1004A0001426000E152214C0DEFF15C0DDFF17EC68
:1004B00010F0010821E1DECFE6FFDDCFE6FFD950E5
:1004C000320FE66E000EDA20E66E3CEC0EF0E552DE
:1004D000E552E552E552DECF14F0DDCF15F00B0EFC
:1004E0001426000E152214C0DEFF15C0DDFF0A0E13
:1004F000E66EA8EC0CF0E552DE6ADD6A1BEC10F04B
:1005000001081CE1DECFE6FFDDCFE6FFD9503D0F4D
:10051000E66E000EDA20E66E3CEC0EF0E552E55297
:10052000E552E552DECF14F0DDCF15F00D0E1426A6
:10053000000E152214C0DEFF15C0DDFF1FEC10F009
:1005400001081CE1DECFE6FFDDCFE6FFD9504A0F00
:10055000E66E000EDA20E66E3CEC0EF0E552E55257
:10056000E552E552DECF14F0DDCF15F00C0E142667
:10057000000E152214C0DEFF15C0DDFF0A0EE66E68
:10058000A8EC0CF0E552BAEC0EF0420EF36E070E3A
:10059000F3CFDBFF720EF36E080EF3CFDBFF650EB9
:1005A000F36E090EF3CFDBFF610EF36E0A0EF3CF8D
:1005B000DBFF6B0EF36E0B0EF3CFDBFF3A0EF36E29
:1005C0000C0EF3CFDBFF200EF36E0D0EF3CFDBFF2F
:1005D000200EF36E0E0EF3CFDBFF200EF36E0F0E28
:1005E000F3CFDBFFDE6ADD6ADECFE6FFDDCFE6FFBD
:1005F000D950070FE66E000EDA20E66E3CEC0EF0E6
:10060000E552E552E552E5520A0EDE6EDD6A23EC54
:1006100010F001081CE1DECFE6FFDDCFE6FFD95088
:100620003D0FE66E000EDA20E66E3CEC0EF0E55271
:10063000E552E552E552DECF14F0DDCF15F00D0E98
:100640001426000E152214C0DEFF15C0DDFF27ECB6
:1006500010F0010821E1DECFE6FFDDCFE6FFD95043
:100660004A0FE66E000EDA20E66E3CEC0EF0E55224
:10067000E552E552E552DECF14F0DDCF15F00C0E59
:100680001426000E152214C0DEFF15C0DDFF0A0E71
:10069000E66EA8EC0CF0E552DE6ADD6A2BEC10F099
:1006A00001081CE1DECFE6FFDDCFE6FFD950260FC3
:1006B000E66E000EDA20E66E3CEC0EF0E552E552F6
:1006C000E552E552DECF14F0DDCF15F00C0E142606
:1006D000000E152214C0DEFF15C0DDFF2FEC10F058
:1006E00001081CE1DECFE6FFDDCFE6FFD950320F77
:1006F000E66E000EDA20E66E3CEC0EF0E552E552B6
:10070000E552E552DECF14F0DDCF15F00B0E1426C6
:10071000000E152214C0DEFF15C0DDFF0A0EE66EC6
:10072000A8EC0CF0E552560EE15C02E2E16AE552FB
:10073000E16EE552E7CFD9FF1200BAEC0EF0010EE0
:10074000E66EE66A6DDCE552E5521200D9CFE6FFAF
:10075000E1CFD9FF030EE126010EDE6EDD6AF36EF6
:10076000020EF3CFDBFFE9DF80A241D0020EDB50A7
:100770000CE0BAEC0EF0DECFE6FFDDCFE6FF4DEC8D
:1007800009F0E552E552020EDB6A80B808D0DF2A94
:10079000010E01E3DB2AF36E020EF3CFDBFF80B420
:1007A00008D0DF06010E01E2DB06F36E020EF3CF86
:1007B000DBFFDECF14F0DDCF15F0153404E214506A
:1007C0000208000E155403E2010EDE6EDD6ADECF74
:1007D00014F0DDCF15F0D890155004E6010E145C2E
:1007E000000E155803E2020EDE6EDD6ABDD7D9CFCA
:1007F000E9FFDACFEAFF010EEE1801E1ED500DE15D
:10080000BAEC0EF0CA0EE66E210EE66ECEEC0DF0DE
:10081000E552E55233EC10F099DFD9CFE9FFDACF9A
:10082000EAFF020EEE1801E1ED5001E10AD8030ED5
:10083000E15C02E2E16AE552E16EE552E7CFD9FF01
:100840001200D9CFE6FFE1CFD9FF030EE126010E5A
:10085000DE6EDD6AF36E020EF3CFDBFF6EDF80A289
:1008600043D0020EDB500CE0BAEC0EF0DECFE6FF18
:10087000DDCFE6FF96EC09F0E552E552020EDB6AA9
:1008800080B808D0DF2A010E01E3DB2AF36E020EE6
:10089000F3CFDBFF80B408D0DF06010E01E2DB06F8
:1008A000F36E020EF3CFDBFFDECF14F0DDCF15F0D9
:1008B000153404E214500308000E155403E2010E2F
:1008C000DE6EDD6ADECF14F0DDCF15F0D890155066
:1008D00004E6010E145C000E155803E2030EDE6EF2
:1008E000DD6A80A033DFBBD7D9CFE9FFDACFEAFFDB
:1008F000010EEE1801E1ED5001E11ED8D9CFE9FF5C
:10090000DACFEAFF020EEE1801E1ED5001E1E5D881
:10091000D9CFE9FFDACFEAFF030EEE1801E1ED507F
:1009200001E14CD9030EE15C02E2E16AE552E16EBD
:10093000E552E7CFD9FF1200D9CFE6FFE1CFD9FFCB
:10094000030EE126010EDE6EDD6AF36E020EF3CFBA
:10095000DBFFF3DE80A243D0020EDB500CE0BAECEA
:100960000EF0DECFE6FFDDCFE6FFFCEC09F0E5524E
:10097000E552020EDB6A80B808D0DF2A010E01E3DF
:10098000DB2AF36E020EF3CFDBFF80B408D0DF0664
:10099000010E01E2DB06F36E020EF3CFDBFFDECFCA
:1009A00014F0DDCF15F0153404E214500408000EE5
:1009B000155403E2010EDE6EDD6ADECF14F0DDCFEA
:1009C00015F0D890155004E6010E145C000E155871
:1009D00003E2040EDE6EDD6A80A033DFBBD7D9CF21
:1009E000E9FFDACFEAFF010EEE1801E1ED5014E164
:1009F000010EE66E5BEC0FF0E552E66A69EC0FF073
:100A0000E552E66A77EC0FF0E552E66A85EC0FF006
:100A1000E552AEEC00F015DFD9CFE9FFDACFEAFFFF
:100A2000020EEE1801E1ED5014E1E66A5BEC0FF006
:100A3000E552010EE66E69EC0FF0E552E66A77ECDE
:100A40000FF0E552E66A85EC0FF0E552AEEC00F0EF
:100A5000F8DED9CFE9FFDACFEAFF030EEE1801E1A5
:100A6000ED5014E1E66A5BEC0FF0E552E66A69ECE2
:100A70000FF0E552010EE66E77EC0FF0E552E66AF4
:100A800085EC0FF0E552AEEC00F0DBDED9CFE9FFEC
:100A9000DACFEAFF040EEE1801E1ED5014E1E66A48
:100AA0005BEC0FF0E552E66A69EC0FF0E552E66A9E
:100AB00077EC0FF0E552010EE66E85EC0FF0E55293
:100AC000AEEC00F0BEDE030EE15C02E2E16AE5524C
:100AD000E16EE552E7CFD9FF1200D9CFE6FFE1CFB3
:100AE000D9FF030EE126010EDE6EDD6AF36E020E03
:100AF000F3CFDBFF22DE80A243D0020EDB500CE0FE
:100B0000BAEC0EF0DECFE6FFDDCFE6FF7FEC0AF0B9
:100B1000E552E552020EDB6A80B808D0DF2A010EEA
:100B200001E3DB2AF36E020EF3CFDBFF80B408D0C3
:100B3000DF06010E01E2DB06F36E020EF3CFDBFFF0
:100B4000DECF14F0DDCF15F0153404E214500208A6
:100B5000000E155403E2010EDE6EDD6ADECF14F0E6
:100B6000DDCF15F0D890155004E6010E145C000E90
:100B7000155803E2020EDE6EDD6A80A062DEBBD78E
:100B8000D9CFE9FFDACFEAFF010EEE1801E1ED500F
:100B900001E185D8D9CFE9FFDACFEAFF020EEE18DE
:100BA00001E1ED5001E134D9030EE15C02E2E16ABA
:100BB000E552E16EE552E7CFD9FF1200D9CFE6FF4B
:100BC000E1CFD9FF030EE126010EDE6EDD6AF36E82
:100BD000020EF3CFDBFFB1DD80A243D0020EDB506B
:100BE0000CE0BAEC0EF0DECFE6FFDDCFE6FF7FECE7
:100BF0000AF0E552E552020EDB6A80B808D0DF2A1F
:100C0000010E01E3DB2AF36E020EF3CFDBFF80B4AB
:100C100008D0DF06010E01E2DB06F36E020EF3CF11
:100C2000DBFFDECF14F0DDCF15F0153404E21450F5
:100C30000208000E155403E2010EDE6EDD6ADECFFF
:100C400014F0DDCF15F0D890155004E6010E145CB9
:100C5000000E155803E2020EDE6EDD6A80A0F1DDA3
:100C6000BBD7D9CFE9FFDACFEAFF010EEE1801E1D9
:100C7000ED5001E192D9D9CFE9FFDACFEAFF020EB8
:100C8000EE1801E1ED5001E142DA030EE15C02E20F
:100C9000E16AE552E16EE552E7CFD9FF1200D9CF04
:100CA000E6FFE1CFD9FF030EE126010EDE6EDD6A1D
:100CB000F36E020EF3CFDBFF40DD80A243D0020EC5
:100CC000DB500CE0BAEC0EF0DECFE6FFDDCFE6FF46
:100CD000C8EC0AF0E552E552020EDB6A80B808D093
:100CE000DF2A010E01E3DB2AF36E020EF3CFDBFFF6
:100CF00080B408D0DF06010E01E2DB06F36E020EBF
:100D0000F3CFDBFFDECF14F0DDCF15F0153404E2B6
:100D100014500308000E155403E2010EDE6EDD6A66
:100D2000DECF14F0DDCF15F0D890155004E6010E9B
:100D3000145C000E155803E2030EDE6EDD6A80A01F
:100D4000CCDEBBD7D9CFE9FFDACFEAFF010EEE1830
:100D500001E1ED5015E1010EE66E93EC0FF0E55266
:100D6000010EE66EA1EC0FF0E552E66AAFEC0FF073
:100D7000E552E66ABDEC0FF0E552AEEC00F0ADDEF8
:100D8000D9CFE9FFDACFEAFF020EEE1801E1ED500C
:100D900015E1E66A93EC0FF0E552E66AA1EC0FF07C
:100DA000E552010EE66EAFEC0FF0E552010EE66E75
:100DB000BDEC0FF0E552AEEC00F08FDED9CFE9FFCD
:100DC000DACFEAFF030EEE1801E1ED5017E1010E54
:100DD000E66E93EC0FF0E552010EE66EA1EC0FF01B
:100DE000E552010EE66EAFEC0FF0E552010EE66E35
:100DF000BDEC0FF0E552AEEC00F06FDE030EE15CEF
:100E000002E2E16AE552E16EE552E7CFD9FF120056
:100E1000D9CFE6FFE1CFD9FF030EE126010EDE6E4A
:100E2000DD6AF36E020EF3CFDBFF87DC80A243D0D6
:100E3000020EDB500CE0BAEC0EF0DECFE6FFDDCFA9
:100E4000E6FF2EEC0BF0E552E552020EDB6A80B8AD
:100E500008D0DF2A010E01E3DB2AF36E020EF3CF86
:100E6000DBFF80B408D0DF06010E01E2DB06F36E83
:100E7000020EF3CFDBFFDECF14F0DDCF15F015341B
:100E800004E214500408000E155403E2010EDE6E55
:100E9000DD6ADECF14F0DDCF15F0D890155004E6F2
:100EA000010E145C000E155803E2040EDE6EDD6ABE
:100EB00080A013DEBBD7D9CFE9FFDACFEAFF010E5E
:100EC000EE1801E1ED5011E113EC10F0000906E11C
:100ED000010EE66E93EC0FF0E55204D0E66A93EC57
:100EE0000FF0E552AEEC00F0F8DDD9CFE9FFDACF34
:100EF000EAFF020EEE1801E1ED5011E117EC10F0DF
:100F0000000906E1010EE66EA1EC0FF0E55204D0F7
:100F1000E66AA1EC0FF0E552AEEC00F0DEDDD9CFD1
:100F2000E9FFDACFEAFF030EEE1801E1ED5011E11F
:100F30001BEC10F0000906E1010EE66EAFEC0FF0BD
:100F4000E55204D0E66AAFEC0FF0E552AEEC00F0EB
:100F5000C4DDD9CFE9FFDACFEAFF040EEE1801E1D4
:100F6000ED5011E11FEC10F0000906E1010EE66EF4
:100F7000BDEC0FF0E55204D0E66ABDEC0FF0E5528F
:100F8000AEEC00F0AADD030EE15C02E2E16AE5529C
:100F9000E16EE552E7CFD9FF1200D9CFE6FFE1CFEE
:100FA000D9FF030EE126010EDE6EDD6AF36E020E3E
:100FB000F3CFDBFF9DEC03F080A243D0020EDB50A9
:100FC0000CE0BAEC0EF0DECFE6FFDDCFE6FFB1ECD1
:100FD0000BF0E552E552020EDB6A80B808D0DF2A3A
:100FE000010E01E3DB2AF36E020EF3CFDBFF80B4C8
:100FF00008D0DF06010E01E2DB06F36E020EF3CF2E
:10100000DBFFDECF14F0DDCF15F0153404E2145011
:101010000308000E155403E2010EDE6EDD6ADECF1A
:1010200014F0DDCF15F0D890155004E6010E145CD5
:10103000000E155803E2030EDE6EDD6A80A0BEDDF1
:10104000BBD7D9CFE9FFDACFEAFF010EEE1801E1F5
:10105000ED5015E1010EE66ECBEC0FF0E552010EFE
:10106000E66ED9EC0FF0E552E66AE7EC0FF0E552D8
:10107000E66AF5EC0FF0E552AEEC00F09FDDD9CF5B
:10108000E9FFDACFEAFF020EEE1801E1ED5015E1BB
:10109000E66ACBEC0FF0E552E66AD9EC0FF0E552C8
:1010A000010EE66EE7EC0FF0E552010EE66EF5EC90
:1010B0000FF0E552AEEC00F081DDD9CFE9FFDACFD9
:1010C000EAFF030EEE1801E1ED5017E1010EE66EA6
:1010D000CBEC0FF0E552010EE66ED9EC0FF0E552C5
:1010E000010EE66EE7EC0FF0E552010EE66EF5EC50
:1010F0000FF0E552AEEC00F061DD030EE15C02E2C0
:10110000E16AE552E16EE552E7CFD9FF1200D9CF8F
:10111000E6FFE1CFD9FF030EE126010EDE6EDD6AA8
:10112000F36E020EF3CFDBFF9DEC03F080A243D001
:10113000020EDB500CE0BAEC0EF0DECFE6FFDDCFA6
:10114000E6FF17EC0CF0E552E552020EDB6A80B8C0
:1011500008D0DF2A010E01E3DB2AF36E020EF3CF83
:10116000DBFF80B408D0DF06010E01E2DB06F36E80
:10117000020EF3CFDBFFDECF14F0DDCF15F0153418
:1011800004E214500408000E155403E2010EDE6E52
:10119000DD6ADECF14F0DDCF15F0D890155004E6EF
:1011A000010E145C000E155803E2040EDE6EDD6ABB
:1011B00080A004DDBBD7D9CFE9FFDACFEAFF010E6B
:1011C000EE1801E1ED5011E123EC10F0000906E109
:1011D000010EE66ECBEC0FF0E55204D0E66ACBECE4
:1011E0000FF0E552AEEC00F0E9DCD9CFE9FFDACF41
:1011F000EAFF020EEE1801E1ED5011E127EC10F0CC
:10120000000906E1010EE66ED9EC0FF0E55204D0BC
:10121000E66AD9EC0FF0E552AEEC00F0CFDCD9CFA6
:10122000E9FFDACFEAFF030EEE1801E1ED5011E11C
:101230002BEC10F0000906E1010EE66EE7EC0FF072
:10124000E55204D0E66AE7EC0FF0E552AEEC00F0B0
:10125000B5DCD9CFE9FFDACFEAFF040EEE1801E1E1
:10126000ED5011E12FEC10F0000906E1010EE66EE1
:10127000F5EC0FF0E55204D0E66AF5EC0FF0E5521C
:10128000AEEC00F09BDC030EE15C02E2E16AE552A9
:0A129000E16EE552E7CFD9FF12002E
:06129A00D9CFE6FFE1CF11
:1012A000D9FFFD0EDBCF08F0FE0EDBCF09F0020EFA
:1012B000081801E109501EE0010E081801E109506B
:1012C00001E030D0C30EE66E210EE66ECEEC0DF0DE
:1012D000E552E552020EE66EE66A8DEC0DF0E5523F
:1012E000E552BB0EE66E210EE66ECEEC0DF0E55239
:1012F000E55218D0B50EE66E210EE66ECEEC0DF07E
:10130000E552E552020EE66EE66A8DEC0DF0E5520E
:10131000E552AC0EE66E210EE66ECEEC0DF0E55217
:10132000E55200D0E552E7CFD9FF1200D9CFE6FF52
:10133000E1CFD9FFFD0EDBCF08F0FE0EDBCF09F0C9
:10134000030E081801E109503BE0020E081801E104
:1013500009501EE0010E081801E1095001E048D0D3
:10136000A70EE66E210EE66ECEEC0DF0E552E552CC
:10137000020EE66EE66A8DEC0DF0E552E5529E0E29
:10138000E66E210EE66ECEEC0DF0E552E55230D061
:10139000940EE66E210EE66ECEEC0DF0E552E552AF
:1013A000020EE66EE66A8DEC0DF0E552E5528E0E09
:1013B000E66E210EE66ECEEC0DF0E552E55218D049
:1013C0009E0EE66E210EE66ECEEC0DF0E552E55275
:1013D000020EE66EE66A8DEC0DF0E552E552870EE0
:1013E000E66E210EE66ECEEC0DF0E552E55200D031
:1013F000E552E7CFD9FF1200D9CFE6FFE1CFD9FF01
:10140000FD0EDBCF08F0FE0EDBCF09F0040E08184E
:1014100001E1095058E0030E081801E109503BE0D2
:10142000020E081801E109501EE0010E081801E142
:10143000095001E060D0800EE66E210EE66ECEEC23
:101440000DF0E552E552020EE66EE66A8DEC0DF007
:10145000E552E5527B0EE66E210EE66ECEEC0DF007
:10146000E552E55248D0750EE66E210EE66ECEECE2
:101470000DF0E552E552020EE66EE66A8DEC0DF0D7
:10148000E552E552700EE66E210EE66ECEEC0DF0E2
:10149000E552E55230D06A0EE66E210EE66ECEECD5
:1014A0000DF0E552E552020EE66EE66A8DEC0DF0A7
:1014B000E552E552650EE66E210EE66ECEEC0DF0BD
:1014C000E552E55218D0700EE66E210EE66ECEECB7
:1014D0000DF0E552E552020EE66EE66A8DEC0DF077
:1014E000E552E5525F0EE66E210EE66ECEEC0DF093
:1014F000E552E55200D0E552E7CFD9FF1200D9CF2F
:10150000E6FFE1CFD9FFFD0EDBCF08F0FE0EDBCF0B
:1015100009F0020E081801E109501EE0010E08183A
:1015200001E1095001E030D0580EE66E210EE66E62
:10153000CEEC0DF0E552E552020EE66EE66A8DEC59
:101540000DF0E552E552510EE66E210EE66ECEEC40
:101550000DF0E552E55218D04B0EE66E210EE66E08
:10156000CEEC0DF0E552E552020EE66EE66A8DEC29
:101570000DF0E552E552430EE66E210EE66ECEEC1E
:101580000DF0E552E55200D0E552E7CFD9FF120049
:10159000D9CFE6FFE1CFD9FFFD0EDBCF08F0FE0E7D
:1015A000DBCF09F0030E081801E109503BE0020E01
:1015B000081801E109501EE0010E081801E1095068
:1015C00001E048D03E0EE66E210EE66ECEEC0DF048
:1015D000E552E552020EE66EE66A8DEC0DF0E5523C
:1015E000E5523A0EE66E210EE66ECEEC0DF0E552B7
:1015F000E55230D0350EE66E210EE66ECEEC0DF0E3
:10160000E552E552020EE66EE66A8DEC0DF0E5520B
:10161000E552310EE66E210EE66ECEEC0DF0E5528F
:10162000E55218D03A0EE66E210EE66ECEEC0DF0C5
:10163000E552E552020EE66EE66A8DEC0DF0E552DB
:10164000E5522C0EE66E210EE66ECEEC0DF0E55264
:10165000E55200D0E552E7CFD9FF1200D9CFE6FF1F
:10166000E1CFD9FFFD0EDBCF08F0FE0EDBCF09F096
:10167000040E081801E1095058E0030E081801E1B2
:1016800009503BE0020E081801E109501EE0010E6E
:10169000081801E1095001E060D0280EE66E210E25
:1016A000E66ECEEC0DF0E552E552020EE66EE66A0D
:1016B0008DEC0DF0E552E552250EE66E210EE66E3C
:1016C000CEEC0DF0E552E55248D0210EE66E210E2B
:1016D000E66ECEEC0DF0E552E552020EE66EE66ADD
:1016E0008DEC0DF0E552E5521E0EE66E210EE66E13
:1016F000CEEC0DF0E552E55230D01A0EE66E210E1A
:10170000E66ECEEC0DF0E552E552020EE66EE66AAC
:101710008DEC0DF0E552E552170EE66E210EE66EE9
:10172000CEEC0DF0E552E55218D01E0EE66E210EFD
:10173000E66ECEEC0DF0E552E552020EE66EE66A7C
:101740008DEC0DF0E552E552130EE66E210EE66EBD
:10175000CEEC0DF0E552E55200D0E552E7CFD9FFCF
:101760001200D9CFE6FFE1CFD9FFFD0EDBCF08F0A5
:10177000FE0EDBCF09F0030E081801E109503BE033
:10178000020E081801E109501EE0010E081801E1DF
:10179000095001E048D0350EE66E210EE66ECEEC23
:1017A0000DF0E552E552020EE66EE66A8DEC0DF0A4
:1017B000E552E5520F0EE66E210EE66ECEEC0DF010
:1017C000E552E55230D03E0EE66E210EE66ECEECCE
:1017D0000DF0E552E552020EE66EE66A8DEC0DF074
:1017E000E552E552310EE66E210EE66ECEEC0DF0BE
:1017F000E552E55218D00F0EE66E210EE66ECEECE5
:101800000DF0E552E552020EE66EE66A8DEC0DF043
:10181000E552E5522C0EE66E210EE66ECEEC0DF092
:10182000E552E55200D0E552E7CFD9FF1200D9CFFB
:10183000E6FFE1CFD9FFFD0EDBCF08F0FE0EDBCFD8
:1018400009F0040E081801E1095058E0030E0818C9
:1018500001E109503BE0020E081801E109501EE0C9
:10186000010E081801E1095001E060D01A0EE66E81
:10187000210EE66ECEEC0DF0E552E552020EE66E5C
:10188000E66A8DEC0DF0E552E552170EE66E210E7C
:10189000E66ECEEC0DF0E552E55248D0130EE66E42
:1018A000210EE66ECEEC0DF0E552E552020EE66E2C
:1018B000E66A8DEC0DF0E552E5520C0EE66E210E57
:1018C000E66ECEEC0DF0E552E55230D0280EE66E15
:1018D000210EE66ECEEC0DF0E552E552020EE66EFC
:1018E000E66A8DEC0DF0E552E552250EE66E210E0E
:1018F000E66ECEEC0DF0E552E55218D00C0EE66E19
:10190000210EE66ECEEC0DF0E552E552020EE66ECB
:10191000E66A8DEC0DF0E552E552210EE66E210EE1
:10192000E66ECEEC0DF0E552E55200D0E552E7CF81
:04193000D9FF1200C9
:0C1934003C0EE66EB5EC11F0E55200D060
:101940001200B40EE66EB5EC11F0E55200D01200B4
:10195000D9CFE6FFE1CFD9FFE652FE0EDB50140DE2
:10196000FE0EF3CFDBFFDF6AFE0EDB50DF5C07E22B
:101970003C0EE66EB5EC11F0E552DF2AF5D700D04B
:10198000E552E552E7CFD9FF1200D9CFE6FFE1CF0C
:10199000D9FFFE0EDBCF14F0640EE76E1418E8AE2C
:1019A00002D0E73402D0E750145C06E200000000E9
:1019B0000000FE0EDB2AEDD7E552E7CFD9FF12007B
:1019C000D9CFE6FFE1CFD9FFFE0EDB50E8B08C8A1D
:1019D000E8A08C9AFD0EDB50100B100802E0000E00
:1019E00001D0010EE8B08C80E8A08C90FD0EDB5099
:1019F000200B200802E0000E01D0010EE8B08C821E
:101A0000E8A08C92FD0EDB50400B400802E0000E77
:101A100001D0010EE8B08C84E8A08C94FD0EDB5060
:101A2000800B800802E0000E01D0010EE8B08C8629
:101A3000E8A08C968C88060EE66EA7DFE5528C989F
:101A4000060EE66EA2DFE552FD0EDB50100DFD0E18
:101A5000F3CFDBFFDB50100B100802E0000E01D0CB
:101A6000010EE8B08C80E8A08C90FD0EDB50200BBE
:101A7000200802E0000E01D0010EE8B08C82E8A040
:101A80008C92FD0EDB50400B400802E0000E01D0AE
:101A9000010EE8B08C84E8A08C94FD0EDB50800B26
:101AA000800802E0000E01D0010EE8B08C86E8A0AC
:101AB0008C968C88060EE66E68DFE5528C98060ED2
:101AC000E66E63DFE552E552E7CFD9FF1200D9CFCA
:101AD000E6FFE1CFD9FFE652956ADF6A020EDF5CCE
:101AE00003E22FDFDF2AFAD7F00E95169598959A24
:101AF0002B0EE66E51D9E552060EE66E4DD9E55233
:101B00000C0EE66E49D9E552010EE66E45D9E55256
:101B1000E552E552E7CFD9FF1200D9CFE6FFE1CF7A
:101B2000D9FFE652FD0EDB5003E0400EDF6E01D020
:101B3000DF6AFE0EDB50DF26800EDF10E66EE66AFF
:101B40003FDFE552E552E552E552E7CFD9FF1200FB
:101B5000D9CFE6FFE1CFD9FFFE0EDB500A0A0CE039
:101B6000070A0AE0010A01E00DD0010EE66EE66AFE
:101B700027DFE552E5520ED0E66AE66ACEDFE5528F
:101B8000E55208D0FE0EDBCFE6FF010EE66E18DF51
:101B9000E552E552E552E7CFD9FF1200D9CFE6FF73
:101BA000E1CFD9FF020EE126DE6ADD6AFD0EDBCF52
:101BB000F6FFFE0EDBCFF7FF0800F5501DE0FD0E2F
:101BC000DBCFF6FFDB2AFE0EDBCFF7FF01E3DB2ADC
:101BD0000800F550E66EFCD8E552DF2A010E01E35D
:101BE000DB2AD9CFE9FFDACFEAFF100EEE1801E1C8
:101BF000ED5001E109D9DAD7020EE15C02E2E16AB7
:101C0000E552E16EE552E7CFD9FF1200D9CFE6FFEA
:101C1000E1CFD9FF020EE126DE6ADD6AFD0EDBCFE1
:101C2000E9FFFE0EDBCFEAFFEF501CE0FD0EDBCF3D
:101C3000E9FFDB2AFE0EDBCFEAFF01E3DB2AEF50F0
:101C4000E66EC6D8E552DF2A010E01E3DB2AD9CFC2
:101C5000E9FFDACFEAFF100EEE1801E1ED5001E1E5
:101C6000D3D8DCD7020EE15C02E2E16AE552E16E14
:101C7000E552E7CFD9FF1200D9CFE6FFE1CFD9FF78
:101C8000020EE126FB0EDBCFDEFFDBCFDDFFD9CF7F
:101C9000E9FFDACFEAFFEE50ED1001E16BD8FD0E5F
:101CA000DBCFE9FFFE0EDBCFEAFFEF502CE0FD0EAD
:101CB000DBCFE9FFDB2AFE0EDBCFEAFF01E3DB2A05
:101CC000EF50E66E85D8E552DF2A010E01E3DB2AEC
:101CD000D9CFE9FFDACFEAFF100EEE1801E1ED509F
:101CE00001E192D8D9CFE9FFDACFEAFF200EEE1852
:101CF00001E1ED5007E10A0EE66E2ADEE5523AD820
:101D0000DE6ADD6ACCD7020EE15C02E2E16AE552EE
:101D1000E16EE552E7CFD9FF12000001A285A2C013
:101D2000E6FFE66A4DDEE552E55212000001A2959B
:101D3000A2C0E6FFE66A44DEE552E5521200000169
:101D4000A283A2C0E6FFE66A3BDEE552E55212003E
:101D50000001A293A2C0E6FFE66A32DEE552E55238
:101D600012000001A281A2C0E6FFE66A29DEE55268
:101D7000E5521200010EE66E0FD8E552020EE66E35
:101D80000BD8E55212000001A291A2C0E6FFE66A5C
:101D900017DEE552E5521200D9CFE6FFE1CFD9FFB9
:101DA0008C9AF00E8C16FE0EDB380F0B8C128C8882
:101DB00000008C98F00E8C16FE0EDB500F0B8C1270
:101DC0008C8800008C98B6DDE552E7CFD9FF120071
:101DD000D9CFE6FFE1CFD9FF8C8AF00E8C16FE0E2C
:101DE000DB380F0B8C128C8800008C98F00E8C1650
:101DF000FE0EDB500F0B8C128C8800008C989ADD45
:101E0000E552E7CFD9FF1200C00EE66EC5DFE552FE
:101E10001200D9CFE6FFE1CFD9FFE65258DED80E47
:101E2000E66E210EE66EBADEE552E552E552E55267
:101E3000E7CFD9FF1200D9CFE6FFE1CFD9FFE652B5
:101E4000DF6A020EE66EE66A68DEE552E552FD0ED6
:101E5000DBCFF6FFFE0EDBCFF7FF0800F55026E0E4
:101E6000FD0EDBCFF6FFDB2AFE0EDBCFF7FF01E333
:101E7000DB2A0800F550E66EABDFE552DF2A100ED4
:101E8000DF5C05E1E66AE66A48DEE552E552200ECF
:101E9000DF5C0BE10A0EE66E5BDDE552020EE66EDC
:101EA000E66A3BDEE552E552DF6AD1D7E552E552FC
:061EB000E7CFD9FF12008C
:0A1EB600D9CFE6FFE1CFD9FFFE0E01
:101EC000DBCF80F00001010EA36FE552E7CFD9FF11
:101ED0001200D9CFE6FFE1CFD9FFFE0EDBCF81F0B4
:101EE0000001010EA36FE552E7CFD9FF1200D9CF51
:101EF000E6FFE1CFD9FFFE0EDBCF82F00001010E3D
:101F0000A36FE552E7CFD9FF1200D9CFE6FFE1CFAB
:101F1000D9FFFE0EDBCF83F00001010EA36FE55267
:101F2000E7CFD9FF1200D9CFE6FFE1CFD9FFFE0EF0
:101F3000DBCF84F00001010EA36FE552E7CFD9FF9C
:101F40001200D9CFE6FFE1CFD9FFFE0EDBCF85F03F
:101F50000001010EA36FE552E7CFD9FF1200D9CFE0
:101F6000E6FFE1CFD9FFFE0EDBCF86F00001010EC8
:101F7000A36FE552E7CFD9FF1200D9CFE6FFE1CF3B
:101F8000D9FFFE0EDBCF87F00001010EA36FE552F3
:101F9000E7CFD9FF1200D9CFE6FFE1CFD9FFFE0E80
:101FA000DBCF88F00001010EA36FE552E7CFD9FF28
:101FB0001200D9CFE6FFE1CFD9FFFE0EDBCF89F0CB
:101FC0000001010EA36FE552E7CFD9FF1200D9CF70
:101FD000E6FFE1CFD9FFFE0EDBCF8AF00001010E54
:101FE000A36FE552E7CFD9FF1200D9CFE6FFE1CFCB
:101FF000D9FFFE0EDBCF8BF00001010EA36FE5527F
:10200000E7CFD9FF12000001805100D0120000017B
:10201000815100D012000001825100D01200000155
:10202000835100D012000001845100D01200000141
:10203000855100D012000001865100D0120000012D
:10204000875100D012000001885100D01200000119
:10205000895100D0120000018A5100D01200000105
:102060008B5100D012000001A3512BE181848186A5
:102070008188818A818C818E0A0EE66EA8EC0CF034
:10208000E552010EE66E17DFE552010EE66E4BDFFC
:10209000E552010EE66E55DFE552E66A60DFE55275
:1020A000E66A6BDFE552010EE66E75DFE552010E62
:1020B000E66E7FDFE552E66A8ADFE552E66A95DF83
:1020C000E5528050100B02E0819401D08184805051
:1020D000040B02E0819601D081868050080B02E05B
:1020E000819801D081888050200B02E0819A01D034
:1020F000818A8050020B02E0819C01D0818C80B0EB
:06210000E0D7819E1200F1
:0A2106005465737421005252003238
:102110007852002D4C46004C46002D524600524647
:10212000002D4C52004C52002D5252002D34783468
:1021300000347834002D32784600327846002D3253
:102140007852002D53696E676C65004D756C74692B
:102150000053696E676C65002D4D756C7469002DB8
:10216000526574340052657434002D526F7434001B
:10217000526F7434002D52656172005265617200B5
:102180002D46726F6E74002D427265616B00427253
:1021900065616B002D5472616374696F6E005472D7
:1021A000616374696F6E002D576179002D436F6E06
:1021B0006669672E00537461727400436F6E6669BE
:1021C000672E002D5374617274002E2E2E52756E80
:1021D0006E696E672E2E2E002057656C636F6D65DD
:1021E00020746F20204A4820202020202020312EDB
:0921F000312E20202020202000C7
:0121F90000E5
:0621FA00060EF66E000E59
:10220000F76E000EF86E00010900F550916F09009D
:10221000F550926F03E1916701D03DD00900F55070
:102220008C6F0900F5508D6F0900F5508E6F090015
:102230000900F550E96E0900F550EA6E0900090041
:102240000900F5508F6F0900F550906F09000900E3
:10225000F6CF93F0F7CF94F0F8CF95F08CC0F6FF5F
:102260008DC0F7FF8EC0F8FF00018F5302E190533D
:1022700007E00900F550EE6E8F07F8E29007F9D7F6
:1022800093C0F6FF94C0F7FF95C0F8FF00019107D7
:08229000000E925BBFD71200A3
:0822980009C013F008C012F0A8
:1022A00007C011F007500C02F4CF05F0F3CF04F093
:1022B00008500D02F4CF07F0F3CF06F00C02F350F4
:1022C0000526F4500622E86A072211500D02F35049
:1022D0000526F4500622E86A072209500C02F35042
:1022E0000626F450072209500D02086AE86A0822FF
:1022F000F3500726F450082211500E02F350062620
:10230000F4500722096AE86A0822092212500E02D4
:10231000F3500726F4500822E86A092213500E02EF
:0A232000F3500826F4500922000CC7
:06232A0013D809EC0FF0CE
:102330000A0EE66EA8EC0CF0E552BAEC0EF0060EB2
:10234000E66E210EE66ECEEC0DF0E552E552FFD7BB
:1023500012009268010E936E94680F0EC16E806A2F
:0A236000816A826A836A846A1200AF
:06236A00FF0EE350186EA7
:10237000480E01D04C0EE76EE72EFED7E76AE72E37
:0A238000FED7182EF7D70000120058
:06238A00000EF36E00EEF0
:1023900000F0060E01D81200EA6002D0EE6AFCD707
:0A23A000F350E9601200EE6AFCD76A
:0623AA0015EE00F025EE27
:1023B00000F0F86A019CFDEC10F0E3EC11F095ECF4
:0623C00011F0FBD7120032
:0223C600120003
:0423C800C800000049
:020000040030CA
:0100010002FC
:010002001EDF
:010003001EDE
:010005008377
:010006008178
:00000001FF
